S01000004669726D776172652E73726563D7
S11300000C9434000C9446000C9446000C94460066
S11300100C9446000C9446000C9446000C94460044
S11300200C9446000C9446000C9446000C94460034
S11300300C9446000C9446000C9446000C94460024
S11300400C9415010C94B5000C947B010C9446009F
S11300500C9450010C9446000C9446000C944600F9
S11300600C9446000C94460011241FBECFEFD8E038
S1130070DEBFCDBF21E0A0E0B1E001C01D92A731F9
S1130080B207E1F70E94D4010C94FE010C94000025
S113009084B18A6284B984B18E7E84B98AB182665D
S11300A08AB98AB18E778AB987B1836087B985B1F5
S11300B0877D85B988B1836088B98CB5836D8CBD23
S11300C08CB5837D8CBDE0ECF0E080818260808320
S11300D08FEC90E09093C5008093C400E1ECF0E0D5
S11300E08081886D8083E2ECF0E080818E60808383
S11300F080818773808385B5856085BDEEE6F0E0F9
S11301008081816080837894089591E090930A01BE
S1130110E5E1F1E080836183419890930701808158
S11301208EBD089581E080930A0140988FEF8EBDC3
S11301300895EBE0F1E080837183628381E0809332
S11301400901809308011092040180818093C60004
S11301500895E1E1F1E08081218130E1839FC001D4
S1130160112422952F70822B08951F920F920FB69F
S11301700F9211242F933F934F935F936F937F9329
S11301808F939F93AF93BF93EF93FF938091070156
S11301908130B1F480910601882319F0813041F057
S11301A033C0809116018EBD81E0809306012CC07E
S11301B0419A1092060110920A011092070124C07C
S11301C0E0910601F0E08EB5EF5EFE4F80838091F2
S11301D006018F5F8093060180910601843090F0C0
S11301E010920A01409A109206018091120180FF38
S11301F00BC083E08093000160E070E08CE00E941B
S1130200990002C08FEF8EBDFF91EF91BF91AF9126
S11302109F918F917F916F915F914F913F912F911A
S11302200F900FBE0F901F9018951F920F920FB64C
S11302300F9211242F933F934F935F936F937F9368
S11302408F939F93AF93BF93EF93FF93809101019B
S11302509091020101969093020180930101809193
S11302600101909102010A9751F480910A018111D0
S113027006C010920201109201010E949200FF91A7
S1130280EF91BF91AF919F918F917F916F915F910A
S11302904F913F912F910F900FBE0F901F90189583
S11302A01F920F920FB60F9211248F93EF93FF9327
S11302B0809108018130B9F4E0910401F0E0E45F39
S11302C0FE4F80818093C600809104018F5F8093EC
S11302D0040180910401833030F0109204011092E3
S11302E0090110920801FF91EF918F910F900FBEB9
S11302F00F901F9018951F920F920FB60F92112412
S11303002F933F934F935F936F937F938F939F9319
S1130310AF93BF93EF93FF93E0910501F0E08091D9
S1130320C600E25FFE4F8083809105018F5F80935A
S1130330050180910501833030F11092050180910F
S11303400E01823049F0863071F08130E1F4809101
S113035010018093000117C00E94A900BC018DE028
S11303600E94990010C080910F01833C61F4809138
S113037010018C3C41F481E08093030163E37CE34E
S113038080E10E949900FF91EF91BF91AF919F91FD
S11303908F917F916F915F914F913F912F910F902A
S11303A00FBE0F901F9018950E9448008091000185
S11303B0813079F018F08330D9F0F8CF5E9A5D98E7
S11303C080910A018111F2CF60E081E10E948500F1
S11303D0EDCF809109018111E9CF80910301813032
S11303E029F70E94A900BC018DE00E949900DECF8C
S11303F05E9860E081E10E948500D8CFF894FFCF39
S9030000FC
