:100000000C9434000C9446000C9446000C9446006A
:100010000C9446000C9446000C9446000C94460048
:100020000C9446000C9446000C9446000C94460038
:100030000C9446000C9446000C9446000C94460028
:100040000C942A010C94C1000C9496010C94460067
:100050000C9465010C9446000C9446000C944600E8
:100060000C9446000C94460011241FBECFEFD8E03C
:10007000DEBFCDBF21E0A0E0B1E001C01D92A33101
:10008000B207E1F70E94F1010C940B020C940000FE
:1000900084B18A6284B984B18E7E84B98AB1826661
:1000A0008AB98AB18E778AB987B1836087B985B1F9
:1000B000877D85B988B1836088B98CB5836D8CBD27
:1000C0008CB5837D8CBDE0ECF0E080818260808324
:1000D0008FEC90E09093C5008093C400E1ECF0E0D9
:1000E0008081886D8083E2ECF0E080818E60808387
:1000F00080818773808385B5856085BDEEE6F0E0FD
:100100008081816080837894089590910601916048
:1001100090930601E1E1F1E0808361834198809151
:10012000060184608093060180818EBD08958091D0
:10013000060181608093060140988FEF8EBD08957F
:10014000E7E0F1E080837183628380910601826041
:1001500080930601809106018860809306011092C9
:10016000030180818093C6000895EDE0F1E0808175
:10017000218130E1839FC001112422952F70822BB1
:1001800008951F920F920FB60F9211242F933F9351
:100190004F935F936F937F938F939F93AF93BF938F
:1001A000EF93FF938091060182FF1CC080910501AF
:1001B000882319F0813041F03CC0809112018EBD3E
:1001C00081E08093050135C0419A1092050180912C
:1001D00006018E7F80930601809106018B7F8093BC
:1001E000060127C0E0910501F0E08EB5E35FFE4F08
:1001F0008083809105018F5F8093050180910501C7
:100200008430A8F080910601817080930601409AA5
:100210001092050180910E0180FF0BC083E0809356
:10022000000160E070E08CE00E94A00002C08FEF4F
:100230008EBDFF91EF91BF91AF919F918F917F9173
:100240006F915F914F913F912F910F900FBE0F9043
:100250001F9018951F920F920FB60F9211242F9393
:100260003F934F935F936F937F938F939F93AF933E
:10027000BF93EF93FF93809101019091020101964A
:1002800090930201809301018091010190910201FC
:100290000A9751F48091060182FD06C01092020176
:1002A000109201010E949700FF91EF91BF91AF91D1
:1002B0009F918F917F916F915F914F913F912F917E
:1002C0000F900FBE0F901F9018951F920F920FB6B0
:1002D0000F9211248F93EF93FF938091060183FF78
:1002E0001DC0E0910301F0E0E85FFE4F8081809344
:1002F000C600809103018F5F809303018091030109
:10030000833060F010920301809106018D7F80930D
:10031000060180910601877F80930601FF91EF918E
:100320008F910F900FBE0F901F9018951F920F92F4
:100330000FB60F9211242F933F934F935F936F93B8
:100340007F938F939F93AF93BF93EF93FF93E0912E
:100350000401F0E08091C600E65FFE4F808380914B
:1003600004018F5F8093040180910401833040F188
:100370001092040180910A01823049F0863071F0B8
:100380008130F1F480910C018093000119C00E942A
:10039000B500BC018DE00E94A00012C080910B014D
:1003A000833C71F480910C018C3C51F480910601E6
:1003B00080618093060163E37CE380E10E94A000FA
:1003C000FF91EF91BF91AF919F918F917F916F912D
:1003D0005F914F913F912F910F900FBE0F901F9003
:1003E00018950E94480080910001882319F08330FD
:1003F00061F0F9CF5E9A5D9860E081E10E9485002E
:10040000809100018823E1F3EECF5E9860E081E106
:0A0410000E948500E8CFF894FFCFAA
:00000001FF
