S01000004669726D776172652E73726563D7
S11300000C9434000C9446000C9446000C94460066
S11300100C9446000C9446000C9446000C94460044
S11300200C9446000C94BD000C9446000C944600BD
S11300300C9446000C9446000C9446000C94460024
S11300400C948B000C9481000C941D010C944600BC
S11300500C94F1000C9446000C9446000C94460059
S11300600C9446000C94460011241FBECFEFD8E038
S1130070DEBFCDBF21E0A0E0B1E001C01D92AC30F5
S1130080B207E1F70E9445010C9458010C9400005A
S113009084B18A6284B984B18E7E84B98AB180665F
S11300A08AB9579887B1836087B985B1877D85B947
S11300B088B1836088B989E190E09093C50080930A
S11300C0C400E1ECF0E08081886D8083E2ECF0E034
S11300D08081866080837894089580910501816091
S11300E08093050140988FEF8EBD0895E6E0F1E01E
S11300F08083618342831092030180818093C600D0
S113010008951F920F920FB60F9211240F900FBEF5
S11301100F901F9018951F920F920FB60F921124F3
S11301202F933F934F935F936F937F938F939F93FB
S1130130AF93BF93EF93FF93809102018F5F8093FE
S1130140020180910201893039F4109202018091F8
S1130150050182FF0E946D00FF91EF91BF91AF9165
S11301609F918F917F916F915F914F913F912F91CB
S11301700F900FBE0F901F9018951F920F920FB6FD
S11301800F9211248F93809101018F5F809301015D
S1130190809101018D33F9F41092010180910001E5
S11301A0823061F0833089F08130A9F45E9B03C012
S11301B05E985D9A10C05E9A5D980DC05D985E9BD6
S11301C002C05E9808C05E9A06C05E985D9B02C03D
S11301D05D9801C05D9A8F910F900FBE0F901F9094
S11301E018951F920F920FB60F9211248F93EF93CD
S11301F0FF93809103018F5F80930301809103013A
S1130200833058F080910501877F80930501E9E0F0
S1130210F1E010821182128208C0E0910301F0E043
S1130220EA5FFE4F80818093C600FF91EF918F912A
S11302300F900FBE0F901F9018951F920F920FB63C
S11302400F9211248F93EF93FF93E0910401F0E058
S11302508091C600E75FFE4F8083809104018F5F29
S11302608093040180910401833038F010920401DA
S113027080910501826080930501FF91EF918F9138
S11302800F900FBE0F901F9018950E944800C9E070
S1130290D1E08091050181FFFCCF809105018D7F24
S11302A0809305014A81698188810E947600F1CF9B
S10702B0F894FFCFEC
S9030000FC
