S01000004669726D776172652E73726563D7
S11300000C943B000C944D000C944D000C944D004A
S11300100C944D000C944D000C944D000C944D0028
S11300200C944D000C9468010C944D000C944D00FC
S11300300C944D000C944D000C944D000C944D0008
S11300400C9436010C94DA000C94C3010C944D000A
S11300500C949C010C944D000C944D000C944D0098
S11300600C944D000C944D00F601FB012F022F025D
S11300700D021202170211241FBECFEFD8E0DEBF1B
S1130080CDBF21E0A0E0B1E001C01D92A531B207CF
S1130090E1F70E9440020C9479020C94000084B1B0
S11300A08E6284B984B18E7E84B98AB180668AB93D
S11300B0579887B1836087B985B1877D85B988B141
S11300C0836088B98CB5836D8CBD8CB5837D8CBD04
S11300D089E190E09093C5008093C400E1ECF0E0E6
S11300E08081886D8083E2ECF0E08081866080838B
S11300F085B5856085BDEEE6F0E080818160808312
S1130100E1EBF0E0808187608083E0E7F0E08081CC
S11301108160808378940895E3E1F1E080836183D2
S11301208091080180FF08C01092070180910801A6
S1130130826080930801089541988091080181604C
S1130140809308018091080182608093080181E016
S113015080930701809113018EBD08958091080159
S113016080FF08C01092060180910801826080938C
S113017008010895409880910801816080930801E6
S1130180809108018460809308011092060181E047
S11301908EBD0895E9E0F1E080836183428380911C
S11301A00801886080930801109204018081809383
S11301B0C60008951F920F920FB60F9211248F93C9
S11301C0EF93FF938091080182FF18C0809106018C
S11301D0843070F44098E0910601F0E08EB5E15F60
S11301E0FE4F8083809106018F5F8093060106C0D5
S11301F0809108018B7F80930801409A80910801C7
S113020081FF19C080910701823070F44198E09118
S11302100701F0E0ED5EFE4F80818EBD8091070105
S11302208F5F809307010DC0809108018D7F8093BB
S11302300801419A06C08091080182FF02C081E052
S11302408EBD80910801867049F48091080180FF79
S113025005C0809108018E7F80930801FF91EF9182
S11302608F910F900FBE0F901F9018951F920F92B1
S11302700FB60F9211242F933F934F935F936F9375
S11302807F938F939F93AF93BF93EF93FF9380914B
S113029003018F5F8093030180910301893039F456
S11302A0109203018091080184FF0E94AE00FF9127
S11302B0EF91BF91AF919F918F917F916F915F91DA
S11302C04F913F912F910F900FBE0F901F90189553
S11302D01F920F920FB60F9211248F9380910201F7
S11302E08F5F80930201809102018D33F9F41092A3
S11302F0020180910101823061F0833089F0813004
S1130300A9F45E9B03C05E985D9A10C05E9A5D98E6
S11303100DC05D985E9B02C05E9808C05E9A06C0E0
S11303205E985D9B02C05D9801C05D9A8F910F90AD
S11303300FBE0F901F9018951F920F920FB60F9239
S113034011248F93EF93FF93809104018F5F809327
S1130350040180910401833030F0809108018F7D85
S11303608093080108C0E0910401F0E0E75FFE4FCC
S113037080818093C600FF91EF918F910F900FBE03
S11303800F901F9018951F920F920FB60F92112481
S11303902F933F934F935F936F937F938F939F9389
S11303A0AF93BF93EF93FF93E0910501F0E0809149
S11303B0C600E45FFE4F8083809105018F5F8093C8
S11303C0050180910501833008F449C010920501AC
S11303D0E0910C018E2F90E0FC01E154F109E7302B
S11303E0F105C0F5EC5CFF4F0C94730280910E0193
S11303F08093000134C080910001833031F441E2E4
S113040061E286E50E94CA002AC0EFE0F1E0418182
S1130410608187E50E94CA0022C06FEF81E10E94DB
S11304208C001DC060E081E10E948C0018C08091A6
S11304300D018935A1F480910E01823481F48091FB
S1130440080180648093080145E466E581E40E9424
S1130450CA0005C042E762E785E40E94CA00FF9132
S1130460EF91BF91AF919F918F917F916F915F9128
S11304704F913F912F910F900FBE0F901F901895A1
S11304800E944F0011E0D2E0C3E08091000181306E
S113049089F028F0823089F08330B1F0F6CF1092E1
S11304A001015E9A5D98809108018091000181307C
S11304B0E1F3EBCF10930101E8CFD09301018091D8
S11304C000018230E1F3E1CFC09301018091080182
S11304D080FD04C060E081E10E948C0080910001F5
S11304E08330E1F3D2CFEE0FFF1F0590F491E02D9E
S10904F00994F894FFCF0B
S9030000FC
