:100000000C9434000C9446000C9446000C9446006A
:100010000C9446000C9446000C9446000C94460048
:100020000C9446000C94C6000C9446000C944600B8
:100030000C9446000C9446000C9446000C94460028
:100040000C94AD000C94A3000C9428010C94460071
:100050000C94FA000C9446000C9446000C94460054
:100060000C9446000C94460011241FBECFEFD8E03C
:10007000DEBFCDBF21E0A0E0B1E001C01D92A33101
:10008000B207E1F70E94A1010C94DD010C9400007D
:1000900084B18A6284B984B18E7E84B98AB1806663
:1000A0008AB9579887B1836087B985B1877D85B94B
:1000B00088B1836088B9E0ECF0E080818260808361
:1000C00087E690E09093C5008093C400E1ECF0E0F7
:1000D0008081886D8083E2ECF0E080818E60808397
:1000E0008081877380837894089590910601916050
:1000F00090930601E1E1F1E0808361834198809172
:10010000060184608093060180818EBD0895E7E03A
:10011000F1E0808371836283809106018260809325
:1001200006011092040180818093C6000895EDE0DD
:10013000F1E08081218130E1839FC001112422956B
:100140002F70822B08951F920F920FB60F921124D9
:100150000F900FBE0F901F9018951F920F920FB621
:100160000F9211248F93809103018F5F809303017D
:1001700080910301893021F41092030180910601DE
:100180008F910F900FBE0F901F9018951F920F9296
:100190000FB60F9211248F93809102018F5F80938D
:1001A0000201809102018D33F9F4109202018091D5
:1001B0000101823061F0833089F08130A9F45E9BC7
:1001C00003C05E985D9A10C05E9A5D980DC05D9800
:1001D0005E9B02C05E9808C05E9A06C05E985D9BFA
:1001E00002C05D9801C05D9A8F910F900FBE0F9075
:1001F0001F9018951F920F920FB60F9211248F9394
:10020000EF93FF93809104018F5F809304018091AD
:100210000401833068F010920401809106018D7F03
:100220008093060180910601877F8093060108C0B4
:10023000E0910401F0E0E95FFE4F80818093C60009
:10024000FF91EF918F910F900FBE0F901F90189517
:100250001F920F920FB60F9211242F933F934F933B
:100260005F936F937F938F939F93AF93BF93EF931E
:10027000FF93E0910501F0E08091C600E65FFE4F3C
:100280008083809105018F5F809305018091050136
:10029000833008F445C01092050180910A0185342D
:1002A00009F128F4813441F0823459F039C08634A0
:1002B00001F1873419F134C080910C018093000161
:1002C0002FC080910001833031F460E070E086E55A
:1002D0000E94870025C00E949700BC0187E50E940C
:1002E00087001EC01092B2006FEF81E10E9475007E
:1002F00017C060E081E10E94750012C080910B017F
:10030000833C71F480910C018C3C51F48091060186
:1003100080618093060163E37CE38BE50E948700A4
:10032000FF91EF91BF91AF919F918F917F916F91CD
:100330005F914F913F912F910F900FBE0F901F90A3
:1003400018950E94480011E0D2E0C3E080910001BE
:100350008130B1F028F08230D1F08330F9F0F6CF5F
:10036000109201015E9A5D98809106016EE67DE62D
:1003700083E70E948700809100018823E1F3E6CFA4
:1003800010930101809100018130E1F3DFCFD09320
:100390000101809100018230E1F3D8CFC0930101C7
:1003A0008091060180FD04C060E081E10E9475003B
:0E03B000809100018330E1F3C9CFF894FFCFB4
:00000001FF
