:100000000C9434000C9446000C9446000C9446006A
:100010000C9446000C9446000C9446000C94460048
:100020000C9446000C9461010C9446000C9446001C
:100030000C9446000C9446000C9446000C94460028
:100040000C942F010C94C6000C94C3010C94460030
:100050000C9495010C9446000C9446000C944600B8
:100060000C9446000C94460011241FBECFEFD8E03C
:10007000DEBFCDBF21E0A0E0B1E001C01D92A43100
:10008000B207E1F70E943C020C9473020C9400004A
:1000900084B18A6284B984B18E7E84B98AB1826661
:1000A0008AB98AB18E778AB987B1836087B985B1F9
:1000B000877D85B988B1836088B98CB5836D8CBD27
:1000C0008CB5837D8CBDE0ECF0E080818260808324
:1000D00087E690E09093C5008093C400E1ECF0E0E7
:1000E0008081886D8083E2ECF0E080818E60808387
:1000F00080818773808385B5856085BDEEE6F0E0FD
:10010000808181608083E1EBF0E080818760808383
:10011000E0E7F0E080818160808378940895909199
:100120000701916090930701E2E1F1E08083618330
:1001300041988091070184608093070180818EBD82
:1001400008958091070181608093070140988FEFA7
:100150008EBD0895E8E0F1E0808371836283809131
:1001600007018260809307011092040180818093CF
:10017000C6000895EEE0F1E08081218130E1839FA7
:10018000C001112422952F70822B08951F920F9287
:100190000FB60F9211242F933F934F935F936F935A
:1001A0007F938F939F93AF93BF93EF93FF93809130
:1001B000070182FF1CC080910601882319F081305D
:1001C00041F03CC0809113018EBD81E08093060117
:1001D00035C0419A10920601809107018E7F80936D
:1001E0000701809107018B7F8093070127C0E09171
:1001F0000601F0E08EB5E25FFE4F8083809106013C
:100200008F5F80930601809106018430A8F0809171
:100210000701817080930701409A10920601809136
:100220000F0180FF0BC083E08093000160E070E06D
:100230008AE50E94AA0002C08FEF8EBDFF91EF9168
:10024000BF91AF919F918F917F916F915F914F91EE
:100250003F912F910F900FBE0F901F9018951F92F6
:100260000F920FB60F9211242F933F934F935F93EA
:100270006F937F938F939F93AF93BF93EF93FF936E
:10028000809103018F5F8093030180910301893086
:1002900039F4109203018091070182FF0E94A100AE
:1002A000FF91EF91BF91AF919F918F917F916F914E
:1002B0005F914F913F912F910F900FBE0F901F9024
:1002C00018951F920F920FB60F9211248F93809161
:1002D00002018F5F80930201809102018D33F9F456
:1002E0001092020180910101823061F0833089F027
:1002F0008130A9F45E9B03C05E985D9A10C05E9A3F
:100300005D980DC05D985E9B02C05E9808C05E9AC5
:1003100006C05E985D9B02C05D9801C05D9A8F919A
:100320000F900FBE0F901F9018951F920F920FB64F
:100330000F9211248F93EF93FF93809104018F5FAD
:100340008093040180910401833068F010920401CD
:10035000809107018D7F8093070180910701877F3E
:100360008093070108C0E0910401F0E0E85FFE4FD0
:1003700080818093C600FF91EF918F910F900FBE07
:100380000F901F9018951F920F920FB60F92112485
:100390002F933F934F935F936F937F938F939F938D
:1003A000AF93BF93EF93FF93E0910501F0E080914D
:1003B000C600E55FFE4F8083809105018F5F8093CB
:1003C000050180910501833008F445C010920501B4
:1003D00080910B01853409F128F4813441F0823495
:1003E00059F039C0863401F1873419F134C0809155
:1003F0000D01809300012FC080910001833031F402
:1004000060E070E08AE50E94AA0025C00E94BA0060
:10041000BC018BE50E94AA001EC01092B2006FEFD3
:1004200081E10E948F0017C060E081E10E948F008F
:1004300012C080910C01833C71F480910D018C3CC1
:1004400051F48091070180618093070163E37CE3AD
:1004500086E50E94AA00FF91EF91BF91AF919F9115
:100460008F917F916F915F914F913F912F910F905D
:100470000FBE0F901F9018950E94480011E0D2E027
:10048000C3E080910001813089F028F08230A9F02A
:100490008330D1F0F6CF109201015E9A5D98809181
:1004A0000701809100018823E1F3EBCF1093010154
:1004B000809100018130E1F3E4CFD093010180917C
:1004C00000018230E1F3DDCFC0930101809107018B
:1004D00080FD04C060E081E10E948F0080910001F6
:0A04E0008330E1F3CECFF894FFCF94
:00000001FF
