:100000000C9434000C9451000C9451000C94510049
:100010000C9451000C9451000C9451000C9451001C
:100020000C9451000C9451000C9451000C9451000C
:100030000C9451000C9451000C9451000C945100FC
:100040000C94E4000C94A2000C9451000C94510008
:100050000C9451000C9451000C9451000C945100DC
:100060000C9451000C94510011241FBECFEFD8E026
:10007000DEBFCDBF11E0A0E0B1E0E4E6F2E002C0F7
:1000800005900D92A230B107D9F721E0A2E0B1E0CE
:1000900001C01D92AE30B207E1F70E941F010C941F
:1000A00030010C94000084B18A6284B984B18E7EE0
:1000B00084B98AB180668AB9579887B1836087B955
:1000C00085B1877D85B988B1836088B98CB5836D2A
:1000D0008CBD8CB5837D8CBDE0ECF0E080818260CE
:1000E00080838FEC90E09093C5008093C400E1EC96
:1000F000F0E0808188608083E2ECF0E080818E60B7
:10010000808380818773808385B5856085BDEEE6B9
:10011000F0E08081816080837894089591E09093ED
:1001200007014198ECE0F1E0808361839093060140
:1001300080818EBD089581E08093070140988FEF04
:100140008EBD08951F920F920FB60F9211248F93B8
:10015000EF93FF93809106018130B1F48091050106
:10016000882319F0813041F027C080910D018EBDA8
:1001700081E08093050120C0419A10920501109200
:1001800007011092060118C0E0910401F0E08EB55D
:10019000E85FFE4F8083809104018F5F80930401AC
:1001A00080910401843030F010920701409A10923F
:1001B000040102C08FEF8EBDFF91EF918F910F90E0
:1001C0000FBE0F901F9018951F920F920FB60F92AF
:1001D00011242F933F934F935F936F937F938F934C
:1001E0009F93AF93BF93EF93FF9380910201909100
:1001F0000301019690930301809302018091020113
:1002000090910301CD9751F480910701811106C0AF
:1002100010920301109202010E949B00FF91EF9146
:10022000BF91AF919F918F917F916F915F914F910E
:100230003F912F910F900FBE0F901F9018950E9425
:100240005300809100018111FECF5E9A5D988091EC
:1002500007018111F6CF60E081E10E948E00F1CFAD
:04026000F894FFCF40
:02026400010097
:00000001FF
